:020000040800F2
:1000000000000220755D0008B9060008BB06000864
:10001000BD060008BF060008C10600080000000079
:10002000000000000000000000000000414E000839
:10003000C306000800000000E14E0008CF49000898
:10004000C55D0008C55D0008C55D0008C55D000808
:10005000C55D0008C55D0008C55D0008C55D0008F8
:10006000C55D0008C55D0008C55D0008C55D0008E8
:10007000C55D0008C55D0008C55D0008C55D0008D8
:10008000C5060008D5060008E5060008C55D00089D
:10009000C55D0008C55D0008C55D0008C55D0008B8
:1000A000C55D0008F5060008C55D0008C55D0008CF
:1000B000C55D0008C55D0008C55D0008C55D000898
:1000C000C55D0008C55D0008C55D0008050700089E
:1000D000C55D0008150700082D070008C55D00086C
:1000E000C55D0008C55D0008C55D0008C55D000868
:1000F000C55D0008C55D0008C55D0008C55D000858
:10010000C55D0008C55D0008C55D0008C55D000847
:10011000C55D0008C55D0008C55D0008C55D000837
:1001200045070008C55D0008550700086507000879
:10013000C55D0008C55D0008C55D0008C55D000817
:10014000C55D0008C55D0008C55D0008C55D000807
:10015000C55D0008C55D000875070008C55D00089D
:10016000C55D0008C55D0008C55D0008C55D0008E7
:10017000C55D0008C55D0008C55D00080000000001
:08018000C55D0008C55D000823
:1001900010B5054C237833B9044B13B10448AFF3C1
:1001A00000800123237010BD7400002000000000B7
:1001B000EC5F000808B5034B1BB103490348AFF3DC
:1001C000008008BD0000000078000020EC5F0008FF
:1001D00053B94AB9002908BF00281CBF4FF0FF31AE
:1001E0004FF0FF3000F074B9ADF1080C6DE904CEAA
:1001F00000F006F8DDF804E0DDE9022304B0704702
:100200002DE9F047089D04468E46002B4DD18A42C9
:10021000944669D9B2FA82F252B101FA02F3C2F1FC
:10022000200120FA01F10CFA02FC41EA030E94408D
:100230004FEA1C48210CBEFBF8F61FFA8CF708FBAE
:1002400016E341EA034306FB07F199420AD91CEB86
:10025000030306F1FF3080F01F81994240F21C81B8
:10026000023E63445B1AA4B2B3FBF8F008FB103300
:1002700044EA034400FB07F7A7420AD91CEB040435
:1002800000F1FF3380F00A81A74240F20781644405
:10029000023840EA0640E41B00261DB1D44000238A
:1002A000C5E900433146BDE8F0878B4209D9002DEE
:1002B00000F0EF800026C5E9000130463146BDE878
:1002C000F087B3FA83F6002E4AD18B4202D38242E2
:1002D00000F2F980841A61EB030301209E46002D91
:1002E000E0D0C5E9004EDDE702B9FFDEB2FA82F2E6
:1002F000002A40F09280A1EB0C014FEA1C471FFA44
:100300008CFE0126200CB1FBF7F307FB131140EA2A
:1003100001410EFB03F0884208D91CEB010103F1F7
:10032000FF3802D2884200F2CB804346091AA4B2B9
:10033000B1FBF7F007FB101144EA01440EFB00FE8D
:10034000A64508D91CEB040400F1FF3102D2A645F2
:1003500000F2BB800846A4EB0E0440EA03409CE791
:10036000C6F12007B34022FA07FC4CEA030C20FA3E
:1003700007F401FA06F31C43F9404FEA1C4900FA5E
:1003800006F3B1FBF9F8200C1FFA8CFE09FB1811DB
:1003900040EA014108FB0EF0884202FA06F20BD94E
:1003A0001CEB010108F1FF3A80F08880884240F29E
:1003B0008580A8F102086144091AA4B2B1FBF9F0E2
:1003C00009FB101144EA014100FB0EFE8E4508D9DD
:1003D0001CEB010100F1FF346CD28E456AD9023862
:1003E000614440EA0840A0FB0294A1EB0E01A14247
:1003F000C846A64656D353D05DB1B3EB080261EBB5
:100400000E0101FA07F722FA06F3F1401F43C5E98E
:10041000007100263146BDE8F087C2F12003D840C4
:100420000CFA02FC21FA03F3914001434FEA1C4706
:100430001FFA8CFEB3FBF7F007FB10360B0C43EAF8
:10044000064300FB0EF69E4204FA02F408D91CEBA8
:10045000030300F1FF382FD29E422DD902386344A6
:100460009B1B89B2B3FBF7F607FB163341EA034146
:1004700006FB0EF38B4208D91CEB010106F1FF3895
:1004800016D28B4214D9023E6144C91A46EA00468C
:1004900038E72E46284605E70646E3E61846F8E61E
:1004A0004B45A9D2B9EB020864EB0C0E0138A3E767
:1004B0004646EAE7204694E74046D1E7D0467BE748
:1004C000023B614432E7304609E76444023842E7C0
:1004D000704700BF08B50268034B9A4200D008BDC0
:1004E00001F050FBFBE700BF0044014072B6FEE79D
:1004F00000B595B03022002108A805F0AFFC00231C
:10050000039304930593069307930193204A116C78
:1005100041F080511164126C02F080520192019AF4
:1005200002931C4B1A6842F480421A601B6803F461
:1005300080430293029B012308934FF48033099375
:1005400002230E934FF480020F9206221092A822EB
:10055000119212930423139308A800F05FFB98B93B
:100560000F23039302230493002305934FF4A05316
:1005700006934FF480530793052103A800F09CFDD8
:1005800020B915B05DF804FBFFF7B0FFFFF7AEFF31
:10059000003802400070004008B501F0D9FAFFF7BA
:1005A000A7FF00F017F801F009FB01F053FB02F080
:1005B000BDF802F0B1FB02F05BFE02F081FE01F03B
:1005C00065FB05F0BBF804F00FFA02F0DDFE04F065
:1005D0001DFAFEE72DE9F0418AB000240594069447
:1005E0000794089409940194304B1A6B42F08002EE
:1005F0001A631A6B02F080020192019A02941A6B3C
:1006000042F001021A631A6B02F001020292029A8E
:1006100003941A6B42F010021A631A6B02F0100274
:100620000392039A04941A6B42F002021A631B6B42
:1006300003F002030493049B1D4F22464FF4F06124
:10064000384600F0C0FF1B4E0122C021304600F0AA
:10065000BAFF4FF08008CDF8148001250695079465
:10066000089505A9384600F01BFE4FF4E06305939A
:1006700006950794089405A9384600F011FE40231A
:100680000593069507940225089505A9304600F0C4
:1006900007FECDF81480112306930794089505A949
:1006A000304600F0FDFD0AB0BDE8F08100380240A0
:1006B0000010024000040240FEE7FEE7FEE7FEE70E
:1006C000FEE7704708B5024801F0FCF808BD00BF1E
:1006D0009C01002008B5024801F0F4F808BD00BFF5
:1006E000FC01002008B5024802F052FC08BD00BF22
:1006F000FC03002008B5024800F0FAF808BD00BF6E
:100700009000002008B5024802F06CFA08BD00BF56
:10071000A403002010B5044C204605F09DF82046A7
:1007200001F0FCFD10BD00BF5C02002010B5044CC0
:10073000204605F091F8204601F0F0FD10BD00BF05
:10074000A002002008B5024801F0BCF808BD00BFB7
:10075000E402002008B5024801F0B4F808BD00BF6B
:10076000DC00002008B5024801F0ACF808BD00BF6D
:100770004403002008B5024801F0A4F808BD00BFFA
:100780003C01002000B583B0002200920D4B596C53
:1007900041F480415964596C01F480410091009901
:1007A0000192196C41F0805119641B6C03F0805365
:1007B0000193019B0F216FF0010001F083F903B059
:1007C0005DF804FB0038024030B589B005460024CE
:1007D00001941E4B5A6C42F400325A645B6C03F471
:1007E00000330193019B02A903A800F03BFD00F038
:1007F00029FD43001648A0FB03239B0C013B154831
:10080000154A026040F2E732C260436004618460CE
:10081000846100F08FF9044610B1204609B030BD64
:100820000C4800F01DF804460028F6D1192001F00C
:1008300081F90F2D01D90124EFE700222946192063
:1008400001F040F9054B1D60E7E700BF00380240AA
:1008500083DE1B4390000020004401400400002080
:1008600090F83D30DBB2012B37D1022380F83D30C8
:100870000268D36843F00103D3600368194A9342C6
:1008800020D0B3F1804F1DD0A2F57C42934219D005
:1008900002F58062934215D002F58062934211D036
:1008A00002F5784293420DD002F57052934209D07E
:1008B000A2F59432934205D01A6842F001021A6000
:1008C000002070479A6802F00702062A07D01A68CB
:1008D00042F001021A60002070470120704700209A
:1008E000704700BF00000140704770477047704775
:1008F00010B5044603681A6912F0020F11D0DA68C5
:1009000012F0020F0DD06FF002021A61012303777B
:1009100003689B6913F0030F70D0FFF7E6FF002315
:10092000237723681A6912F0040F12D0DA6812F0E4
:10093000040F0ED06FF004021A610223237723689C
:100940009B6913F4407F5FD02046FFF7CEFF002362
:10095000237723681A6912F0080F12D0DA6812F0B0
:10096000080F0ED06FF008021A6104232377236862
:10097000DB6913F0030F4ED02046FFF7B6FF0023CC
:10098000237723681A6912F0100F12D0DA6812F078
:10099000100F0ED06FF010021A610823237723681E
:1009A000DB6913F4407F3DD02046FFF79EFF002314
:1009B000237723681A6912F0010F03D0DA6812F066
:1009C000010F36D123681A6912F0800F03D0DA685C
:1009D00012F0800F34D123681A6912F0400F03D04F
:1009E000DA6812F0400F32D123681A6912F0200F32
:1009F00003D0DA6812F0200F30D110BDFFF774FF7A
:100A00002046FFF773FF8AE72046FFF76DFF204679
:100A1000FFF76CFF9BE72046FFF766FF2046FFF7D6
:100A200065FFACE72046FFF75FFF2046FFF75EFF5C
:100A3000BDE76FF001021A612046FFF74BFDC1E7E9
:100A40006FF080021A61204600F0E7F8C3E76FF00C
:100A500040021A612046FFF74AFFC5E76FF0200207
:100A60001A61204600F0D8F8C7E700000368304A52
:100A7000904212D0B0F1804F0FD0A2F57C4290424C
:100A80000BD002F58062904207D002F5806290425E
:100A900003D002F57842904203D123F070034A68F4
:100AA0001343234A90422AD0B0F1804F27D0A2F5B9
:100AB0007C42904223D002F5806290421FD002F522
:100AC000806290421BD002F57842904217D002F526
:100AD0007052904213D002F5806290420FD002F51E
:100AE000806290420BD0A2F59832904207D002F576
:100AF0008062904203D002F58062904203D123F4D9
:100B00004073CA68134323F080034A6913430360A8
:100B10008B68C3620B688362054B984203D003F570
:100B20008063984201D10B690363012343617047DD
:100B30000000014040B310B5044690F83D30F3B1D9
:100B4000022384F83D30214651F8040BFFF78EFF55
:100B5000012384F8463084F83E3084F83F3084F82E
:100B6000403084F8413084F8423084F8433084F8CF
:100B7000443084F8453084F83D30002010BD80F8C2
:100B80003C3002F0C5FBDBE70120704790F83C30B9
:100B9000012B3DD010B4012380F83C30022380F8B3
:100BA0003D3003685A689C6822F0700C0A6842EA7B
:100BB0000C025A600368174A93421AD0B3F1804F6F
:100BC00017D0A2F57C42934213D002F58062934283
:100BD0000FD002F5806293420BD002F57842934227
:100BE00007D002F57052934203D0A2F5943293429B
:100BF00004D124F080044A6814439C60012380F8E7
:100C00003D30002380F83C3018465DF8044B7047B7
:100C1000022070470000014070477047002800F034
:100C2000E08170B582B00446036813F0010F3BD039
:100C30009F4B9B6803F00C03042B2CD09C4B9B68B0
:100C400003F00C03082B21D06368B3F5803F4FD02D
:100C5000B3F5A02F52D0964B1A6822F480321A6056
:100C60001A6822F480221A606368002B50D000F0CA
:100C700095FF05468E4B1B6813F4003F14D100F01E
:100C80008DFF401B6428F5D90320B1E1884B5B68D8
:100C900013F4800FD8D0864B1B6813F4003F03D0A9
:100CA0006368002B00F09F81236813F0020F54D07B
:100CB0007F4B9B6813F00C0F3ED07D4B9B6803F07D
:100CC0000C03082B33D0E368002B68D0794B01224A
:100CD0001A6000F063FF0546754B1B6813F0020FA6
:100CE00054D100F05BFF401B0228F5D903207FE1BF
:100CF0006F4A136843F480331360B5E76C4B1A688E
:100D000042F480221A601A6842F480321A60ABE71B
:100D100000F044FF0546664B1B6813F4003FC3D048
:100D200000F03CFF401B6428F5D9032060E1604BD4
:100D30005B6813F4800FC6D15D4B1B6813F0020F84
:100D400003D0E368012B40F05081594A136823F027
:100D5000F803216943EAC1031360236813F0080F05
:100D600042D063696BB3534B0122C3F8802E00F06D
:100D700015FF05464E4B5B6F13F0020F34D100F0A8
:100D80000DFF401B0228F5D9032031E1484A1368C2
:100D900023F0F803216943EAC1031360DDE7454B03
:100DA00000221A6000F0FAFE0546414B1B6813F062
:100DB000020FD2D000F0F2FE401B0228F5D903202A
:100DC00016E13C4B0022C3F8802E00F0E7FE0546FA
:100DD000374B5B6F13F0020F06D000F0DFFE401BB5
:100DE0000228F5D9032003E1236813F0040F77D01C
:100DF0002F4B1B6C13F0805F33D1002301932C4BDE
:100E00001A6C42F080521A641B6C03F080530193F9
:100E1000019B0125284B1B6813F4807F23D0A36816
:100E2000012B34D0052B38D0214B1A6F22F0010250
:100E30001A671A6F22F004021A67A368002B3DD0CC
:100E400000F0ACFE06461A4B1B6F13F0020F46D1A2
:100E500000F0A4FE801B41F288339842F3D90320AE
:100E6000C6E00025D6E7144A136843F48073136084
:100E700000F094FE0646104B1B6813F4807FCED121
:100E800000F08CFE801B0228F5D90320B0E0084A50
:100E9000136F43F001031367CFE7054B1A6F42F05E
:100EA00004021A671A6F42F001021A67C5E700BF11
:100EB00000380240000047420070004000F06EFE23
:100EC0000646524B1B6F13F0020F08D000F066FE6F
:100ED000801B41F288339842F3D9032088E0EDB9B2
:100EE000A369002B00F08380484A926802F00C024C
:100EF000082A51D0022B17D0454B00221A6600F069
:100F00004DFE0446414B1B6813F0007F42D000F0B9
:100F100045FE001B0228F5D9032069E03B4A136C0B
:100F200023F080531364DBE7394B00221A6600F08C
:100F300035FE0546354B1B6813F0007F06D000F0E8
:100F40002DFE401B0228F5D9032051E0E369226AF7
:100F50001343626A43EA8213A26A5208013A43EADF
:100F60000243E26A43EA0263284A5360284B0122A3
:100F70001A6600F013FE0446244B1B6813F0007F32
:100F800006D100F00BFE001B0228F5D903202FE04C
:100F900000202DE000202BE0012B2BD01B4B5B68A9
:100FA00003F48001E269914226D103F03F02216AF5
:100FB0008A4223D1616A47F6C0721A40B2EB811FA0
:100FC0001ED103F44031A26A5208013AB1EB024F3C
:100FD00018D103F07063E26AB3EB026F14D1002002
:100FE00006E001207047012002E0012000E000201F
:100FF00002B070BD0120FBE70120F9E70120F7E70F
:101000000120F5E70120F3E70120F1E70038024075
:101010000000474208B5254B9B6803F00C03042BE6
:101020003FD0082B3FD1214B5A6802F03F025B684A
:1010300013F4800F12D01D4B5968C1F388111C485E
:101040000023A1FB0001FFF7C3F8184B5B68C3F353
:10105000014301335B00B0FBF3F025E0134B59680B
:10106000C1F3881C4FEA4C11B1EB0C006EEB0E0E75
:101070004FEA8E1343EA90638101091A63EB0E0372
:10108000DB0043EA5173C90011EB0C0C43F1000380
:10109000990200234FEA8C2041EA9C51FFF798F80F
:1010A000D3E7034800E0034808BD00BF0038024012
:1010B000001BB7000024F400002800F09B8070B5EE
:1010C0000D4604464F4B1B6803F007038B4208D2C2
:1010D000CBB24C4A1370136803F007038B4240F005
:1010E0008B80236813F0020F17D013F0040F04D085
:1010F000454A936843F4E0539360236813F0080F64
:1011000004D0414A936843F4604393603E4A936835
:1011100023F0F003A1680B439360236813F0010FE1
:1011200032D06368012B21D09A1E012A25D9364A74
:10113000126812F0020F61D033498A6822F003026C
:1011400013438B6000F02AFD06462F4B9B6803F08B
:101150000C036268B3EB820F16D000F01FFD801BFA
:1011600041F288339842F0D9032042E0264A1268BF
:1011700012F4003FE0D101203BE0234A126812F054
:10118000007FD9D1012034E01E4B1B6803F0070318
:10119000AB4207D9EAB21B4B1A701B6803F0070376
:1011A000AB422DD1236813F0040F06D0164A936882
:1011B00023F4E053E1680B439360236813F0080FB6
:1011C00007D0114A936823F46043216943EAC103BD
:1011D0009360FFF71FFF0C4B9B68C3F303130B4A8D
:1011E000D35CD8400A4B18600A4B1868FFF7ECFA3A
:1011F000002070BD012070470120FAE70120F8E7C8
:101200000120F6E7003C0240003802400C60000874
:101210000800002004000020014B1868704700BF40
:101220000800002008B5FFF7F7FF044B9B68C3F3E5
:101230008223034AD35CD84008BD00BF0038024077
:101240001C60000808B5FFF7E7FF044B9B68C3F379
:101250004233034AD35CD84008BD00BF0038024087
:101260001C6000080F2303600B4B9A6802F0030216
:1012700042609A6802F0F00282609A6802F4E052DA
:10128000C2609B68DB0803F4E0530361034B1B68F7
:1012900003F007030B60704700380240003C024037
:1012A00000230F2B00F2E48070B582B060E0856807
:1012B0005E000324B44025EA0405CC68B4402C4306
:1012C0008460456825EA02054C68C4F300129A4020
:1012D0002A4342605AE0DC08083450F8246003F0E6
:1012E000070295000F22AA4026EA020E0A69AA40C8
:1012F00042EA0E0240F824205CE0072200E00022CF
:1013000002FA0EF22A4302345A4D45F824205A4A72
:1013100094686FEA0C0224EA0C054E6816F4801FEC
:1013200001D04CEA0405544CA560E46802EA0405C7
:101330004E6816F4001F01D04CEA04054E4CE560DF
:10134000646802EA04054E6816F4003F01D04CEAD6
:101350000405494C6560246822404D6815F4803FBF
:1013600001D04CEA0402444C226001330F2B7DD89B
:1013700001229A400C6804EA020C32EA0404F4D117
:101380004C6804F00304013C012C90D94A6802F037
:101390000302032A09D0C4685D000322AA4024EA9C
:1013A00002048A68AA402243C2604A6802F003022B
:1013B000022A90D004684FEA430E032202FA0EF28A
:1013C00024EA02044A6802F0030202FA0EF22243FF
:1013D00002604A6812F4403FC7D000220192274AB7
:1013E000546C44F480445464526C02F48042019280
:1013F000019A9C08A51C1F4A52F8255003F00302CD
:101400004FEA820E0F2202FA0EF225EA02051C4A6A
:1014100090423FF474AF02F5806290421AD002F518
:101420008062904218D002F58062904216D002F598
:101430008062904214D002F58062904212D002F590
:101440008062904210D002F5806290423FF455AF26
:10145000082255E7012253E7022251E703224FE712
:1014600004224DE705224BE7062249E702B070BD92
:10147000704700BF00380140003C01400038024086
:101480000000024000230F2B00F28F80F0B52DE00A
:10149000072500E0002505FA0CFCA44569D0046886
:1014A0005D004FF0030C0CFA05FC24EA0C04046008
:1014B0004FEAD30E0EF1080E50F82E4003F0070548
:1014C000AE000F25B54024EA050440F82E40C4685C
:1014D00024EA0C04C460446824EA02024260826880
:1014E00022EA0C02826001330F2B5DD801229A4060
:1014F00002EA010632EA0104F5D14FEA930E0EF139
:1015000002052A4C54F8254003F0030C4FEA8C0CDA
:101510000F2505FA0CF73C40254DA842BAD005F539
:101520008065A84219D005F58065A84217D005F559
:101530008065A84215D005F58065A84213D005F551
:101540008065A84211D005F58065A8420FD005F549
:101550008065A8429CD008259DE701259BE70225D0
:1015600099E7032597E7042595E7052593E70625E1
:1015700091E7104C256825EA06052560656825EA8F
:1015800006056560E56825EA0605E560A56825EAC3
:101590000606A660054E0EF1020456F8245025EA10
:1015A000070546F824507AE7F0BD7047003801403F
:1015B00000000240003C01400369194201D00120B3
:1015C0007047002070470AB181617047090481614A
:1015D000704730B405682C6824F480242C600468BB
:1015E00063608368402B05D0036899600368DA6004
:1015F00030BC704703689A600368D960F8E7000060
:1016000010B40368D9B210390C4AA2FB0142120986
:101610000B4CA25CC2655F2909D923F47F7323F0C8
:10162000030304338365806D5DF8044B704723F436
:101630007F7323F003038365F5E700BFABAAAAAA73
:1016400004600008836A826992B9012B0AD0022BD8
:1016500002D00BB100207047C36A13F0807F28D1FD
:1016600000207047C36AB3F1C07F24D000207047C8
:10167000B2F5005F09D0022B25D9032B25D1C36A0F
:1016800013F0807F23D100207047032B03D8DFE8BD
:1016900003F01404140A00207047C36A13F0807F1B
:1016A0000DD100207047C36AB3F1C07F09D000207C
:1016B00070470120704701207047012070470120CA
:1016C00070470120704701207047002070470120BB
:1016D0007047000070B5044600F060FA002C5BD043
:1016E0000546022384F83530002384F8343022681C
:1016F000136823F00103136023681A6812F0010FC6
:101700000AD000F04BFA431B052BF5D92023636563
:10171000032084F8350070BD1A68204810406168C5
:10172000A2680A43E1680A4321690A4361690A43DE
:10173000A1690A43E1690A43216A0A430243616AD3
:1017400004291ED01A602668756925F00705636AAA
:101750001D43042B07D1A36A1D43E36A1BB1204636
:10176000FFF770FF90B975612046FFF749FFE26D02
:101770003F239340836000206065012384F8353067
:10178000C9E7E16A206B01430A43DBE74023636555
:10179000012084F83500BEE70120BCE73F8010F04F
:1017A00038B50446856D90F8340001282BD001200F
:1017B00084F8340094F83500C0B2012804D0002326
:1017C00084F83430022038BD022084F8350000202F
:1017D00060652046FFF7FDFEE26D3F239340AB605E
:1017E0002268136843F016031360236C23B1226848
:1017F000136843F0080313602268136843F0010381
:1018000013600020DFE70220DDE770B50446866D37
:1018100000F0C4F994F83530DBB2022B06D08023F7
:101820006365002384F83430012070BD05462268CA
:10183000136823F0160313602268536923F08003B2
:101840005361236CE3B12268136823F0080313602B
:101850002268136823F00103136023681B6813F0E8
:10186000010F11D000F09AF9431B052BF5D9202365
:101870006365032084F83500002384F83430D4E70E
:10188000A36C002BDFD1E3E7E26D3F239340B3600D
:10189000012384F83530002084F83400C5E790F83F
:1018A0003530DBB2022B03D0802343650120704723
:1018B000052380F835300268136823F001031360B4
:1018C00000207047F0B583B0044600230193724BAB
:1018D0001D68724BA3FB0535AD0A876D3E68C26D6E
:1018E00008239340334210D003681A6812F0040FA3
:1018F0000BD01A6822F004021A60C26D08239340CC
:10190000BB60436D43F001034365E26D01239340E7
:10191000334209D02268526912F0800F04D0BB60B4
:10192000636D43F002036365E26D04239340334229
:1019300009D02268126812F0020F04D0BB60636DF8
:1019400043F004036365E26D10239340334224D0D7
:101950002268126812F0080F1FD0BB6023681A6853
:1019600012F4802F0DD01B6813F4002F04D1236CC8
:101970009BB12046984710E0A36C73B1204698476E
:101980000BE01A6812F4807F03D11A6822F0080273
:101990001A60236C0BB120469847E26D20239340D8
:1019A000334255D02268126812F0100F50D0BB603D
:1019B00094F83530DBB2052B0ED023681A6812F488
:1019C000802F33D01B6813F4002F2AD1636C002BB7
:1019D0003ED0204698473BE02268136823F0160368
:1019E00013602268536923F080035361236CA3B111
:1019F0002268136823F008031360E26D3F239340CD
:101A0000BB60012384F83530002384F83430236D23
:101A1000002B3FD0204698473CE0A36C002BE7D139
:101A2000EBE7E36BA3B12046984711E01A6812F484
:101A3000807F09D11A6822F010021A60012384F80D
:101A40003530002384F83430E36B0BB120469847DF
:101A5000636DFBB1636D13F0010F17D0052384F89C
:101A600035302268136823F001031360019B0133B2
:101A70000193AB4204D823681B6813F0010FF5D122
:101A8000012384F83530002384F83430E36C0BB143
:101A90002046984703B0F0BD08000020B5814E1BDA
:101AA000074AD36823F4E0631B041B0C000200F414
:101AB000E060034343F0BF6343F40033D3607047F7
:101AC00000ED00E000B5194BDB68C3F30223C3F15E
:101AD000070CBCF1040F28BF4FF0040C03F1040EF7
:101AE000BEF1060F18D9033B4FF0FF3E0EFA0CFC77
:101AF00021EA0C0199400EFA03F322EA0303194389
:101B000000280BDB0901C9B200F1604000F561401B
:101B100080F800135DF804FB0023E5E700F00F00F8
:101B20000901C9B2024B1954F4E700BF00ED00E00F
:101B300014ED00E0002807DB00F01F02400901233C
:101B40009340024A42F82030704700BF00E100E0B5
:101B500008B50B4B1A6842F400721A601A6842F416
:101B600080621A601A6842F480721A600320FFF7DC
:101B700097FF0F20FEF728FEFEF704FE002008BDA9
:101B8000003C0240034A1168034B1B780B4413606E
:101B9000704700BFD800002000000020014B1868EB
:101BA000704700BFD8000020034AD2F8883043F4C1
:101BB0007003C2F88830704700ED00E010B582B0C5
:101BC00000240094224B1A6B42F480021A631A6BB1
:101BD00002F480020092009A01941A6B42F40012FF
:101BE0001A631B6B03F400130193019B224605212A
:101BF0001020FFF767FF1020FFF79CFF224605210A
:101C00001120FFF75FFF1120FFF794FF2246052107
:101C10003820FFF757FF3820FFF78CFF22460521B9
:101C20003A20FFF74FFF3A20FFF784FF22460521B5
:101C30003B20FFF747FF3B20FFF77CFF22460521B3
:101C40004620FFF73FFF4620FFF774FF02B010BDAC
:101C50000038024008B50A480A4B03600A4B43604B
:101C600000238360C36003610C2242618361C3610E
:101C700000F006FA00B908BDFEF738FCFBE700BF2C
:101C80005C0200200010014000A3020008B50A48D1
:101C90000A4B03604FF46153436000238360C360C9
:101CA00003610C2242618361C36100F0E9F900B96C
:101CB00008BDFEF71BFCFBE7A0020020004400402B
:101CC00030B58BB004460023059306930793089321
:101CD00009930368634A934204D0634A934261D0F4
:101CE0000BB030BD00250195604B5A6C42F01002DC
:101CF0005A645A6C02F010020192019A02951A6B12
:101D000042F001021A631B6B03F001030293029B72
:101D10004FF4C0630593022306930323089307231C
:101D2000099305A95248FFF7BBFA5248524B03608A
:101D30004FF0006343608560C5604FF480630361CA
:101D400045618561C56105624562FFF7C3FC18BB4B
:101D5000484BA3639C634948494B03604FF00063C1
:101D60004360402383600023C3604FF480620261BC
:101D700043618361C36103624362FFF7ABFC70B9E7
:101D80003E4B63639C63002205212520FFF79AFEEA
:101D90002520FFF7CFFEA3E7FEF7A8FBD8E7FEF765
:101DA000A5FBEDE700250395304B1A6C42F4003299
:101DB0001A641A6C02F400320392039A04951A6BA7
:101DC00042F001021A631B6B03F001030493049BAE
:101DD0000C230593022306930323089307230993F7
:101DE00005A92348FFF75CFA2648274B03604FF00C
:101DF000006343608560C5604FF4806303614561A3
:101E00008561C56105624562FFF764FC18BB1D4B27
:101E1000A3639C631D481E4B03604FF00063436047
:101E2000402383600023C3604FF4806202614361FA
:101E30008361C36103624362FFF74CFC70B9134BCB
:101E400063639C63002205212620FFF73BFE2620CA
:101E5000FFF770FE44E7FEF749FBD8E7FEF746FBC5
:101E6000EDE700BF00100140004400400038024090
:101E700000000240DC000020406402403C010020E1
:101E8000B86402409C01002088600240FC010020F0
:101E9000A0600240026802F10C0353E8003F23F007
:101EA000C0030C3242E800310029F3D1202380F82E
:101EB0003D307047026802F10C0353E8003F23F401
:101EC00090730C3242E800310029F3D1026802F12C
:101ED000140353E8003F23F00103143242E80031B9
:101EE0000029F3D1036B012B05D0202380F83E306D
:101EF000002303637047026802F10C0353E8003FBC
:101F000023F010030C3242E800310029F3D1ECE752
:101F100090F83D30DBB2212B01D00220704783685E
:101F2000B3F5805F17D0036A5A1C02621A780368FF
:101F30005A60C38C9BB2013B9BB2C3844BB902680D
:101F4000D36823F08003D3600268D36843F0400372
:101F5000D360002070470369002BE4D1036A1B881B
:101F60000268C3F308035360036A02330362E0E7C5
:101F700038B504460268136923F44053C1680B4323
:101F8000136183680269134342691343C2691A43A8
:101F90000168CB6823F4164323F00C031343CB6092
:101FA0000268536923F4407381690B4353610368EA
:101FB000314A934206D002F58062934202D0FFF785
:101FC00031F901E0FFF73EF9E369B3F5004F29D09D
:101FD0000021031849411B1841F10001C90041EAE1
:101FE0005371DB00181863684FEA83024FEA93735A
:101FF00041F10001FEF7ECF8204DA5FB003251093C
:10200000642303FB11031B013233A5FB03235B098C
:1020100003F0F00202EB011203F00F0321681344F6
:102020008B6038BD0023021843EB0301121841F105
:102030000001C90041EA5271D200101841F10001BB
:10204000626892185B41FEF7C3F80C4DA5FB0032A5
:102050005109642303FB1103DB003233A5FB032387
:102060005B095A0002F4F87202EB011203F0070355
:10207000216813448B60D4E7001001401F85EB51A9
:1020800058B310B5044690F83D300BB3242384F8C0
:102090003D302268D36823F40053D3602046FFF715
:1020A00067FF2268136923F4904313612268536920
:1020B00023F02A0353612268D36843F40053D360AA
:1020C00000202064202384F83D3084F83E3010BD89
:1020D00080F83C30FFF7F4FDD8E70120704790F816
:1020E0003D30DBB2202B19D1D1B1DAB190F83C30C0
:1020F000012B19D0012380F83C3001628284C28414
:1021000000230364212280F83D2080F83C300168E0
:10211000CA6842F08002CA601846704702207047C1
:1021200001207047012070470220704710B5044617
:1021300003685A6990F83D30DBB2212B0AD023683E
:102140005A6902F0400294F83E30DBB2222B19D0DB
:10215000002010BD02F08002002AF0D0226802F1B7
:10216000140353E8003F23F08003143242E80031A7
:102170000029F3D1606B08B1FFF747FB2046FFF75A
:1021800089FEDCE7002AE3D0226802F1140353E859
:10219000003F23F04003143242E800310029F3D11C
:1021A000A06B08B1FFF731FB2046FFF783FECFE7B6
:1021B00008B50168CA6822F04002CA60202280F88F
:1021C0003D2003F061FB002008BD70477047704759
:1021D00010B5846B23685A6994F83D30DBB2212B2B
:1021E00010D023685A6902F0400294F83E30DBB206
:1021F000222B11D0236C43F0100323642046FFF7F9
:10220000E6FF10BD02F08002002AEAD00023E3843A
:102210002046FFF73FFEE4E7002AEBD00023E385EA
:102220002046FFF747FEE5E708B5806B0023C3852E
:10223000C384FFF7CCFF08BD704790F83E30DBB297
:10224000222B67D18368B3F5805F4DD0826AB3F5E6
:10225000805F04D0002B54D10369002B51D1036857
:102260005B681370836A01338362C38D9BB2013B49
:102270009BB2C385002B4FD100B583B00268D368F1
:1022800023F02003D3600268D36823F48073D36003
:102290000268536923F001035361202380F83E3024
:1022A000036B012B33D100230363026802F10C039B
:1022B00053E8003F23F010030C3242E800310029BC
:1022C000F3D103681A6812F0100F06D000220192B1
:1022D0001A6801925B680193019B818DFFF7ACFF47
:1022E000002003B05DF804FB0269002AAED1826AC7
:1022F00003685B68C3F308031380836A0233836255
:10230000B3E703685B6803F07F031370AAE7FFF786
:102310005CFFE5E7022070470020704730B583B0CE
:10232000044602681368D068516913F00F0505D19F
:1023300013F0200F02D010F0200F19D12DB111F0A1
:10234000010119D110F4907F16D1216B01297DD0A4
:1023500013F0800F03D010F0800F40F0158113F0C0
:10236000400F03D010F0400F40F0128103B030BD99
:102370002046FFF762FFF9E713F0010F06D010F4D3
:10238000807F03D0226C42F00102226413F0040F1C
:1023900004D019B1226C42F00202226413F0020F41
:1023A00004D019B1226C42F00402226413F0080F29
:1023B00007D010F0200F00D119B1226C42F00802B2
:1023C0002264226C002AD1D013F0200F02D010F02A
:1023D000200F29D123685B6903F04003226C12F0BF
:1023E000080F00D163B32046FFF764FD23685B69E3
:1023F00013F0400F20D0226802F1140353E8003F8D
:1024000023F04003143242E800310029F3D1A36BDA
:1024100073B1614A1A65A06BFFF741FA0028A5D095
:10242000A06B036D9847A1E72046FFF706FFD1E7B1
:102430002046FFF7CCFE99E72046FFF7C8FE95E758
:102440002046FFF7C4FE002323648FE713F0100F2C
:102450003FF47EAF10F0100F3FF47AAF00230193EA
:102460001368019353680193019B536913F0400F64
:1024700050D0A26B13685B689BB2002B3FF476AF21
:10248000A18D99427FF672AFE385D369B3F5807F62
:1024900037D0226802F10C0353E8003F23F4807325
:1024A0000C3242E800310029F3D1226802F1140312
:1024B00053E8003F23F00103143242E800310029C1
:1024C000F3D1226802F1140353E8003F23F04003E4
:1024D000143242E800310029F3D1202384F83E3041
:1024E00000232363226802F10C0353E8003F23F02A
:1024F00010030C3242E800310029F3D1A06BFFF742
:1025000084F9A18DE38D9BB2C91A89B22046FFF7E9
:1025100093FE2BE7A18DE38D9BB2C91A89B2E38D9F
:102520009BB2002B3FF422AF00293FF41FAF22687B
:1025300002F10C0353E8003F23F490730C3242E89D
:1025400000300028F3D1226802F1140353E8003F61
:1025500023F00103143242E800300028F3D1202395
:1025600084F83E3000232363226802F10C0353E811
:10257000003F23F010030C3242E800300028F3D172
:102580002046FFF759FEF1E62046FFF7C1FCEDE6D5
:102590002046FFF70DFEE9E62922000808B5806B0A
:1025A000036B012B02D0FFF711FE08BD818D490896
:1025B000FFF742FEF9E708B50346806B1B681B680E
:1025C00013F4807F2BD10023C385026802F10C0332
:1025D00053E8003F23F480730C3242E800310029B5
:1025E000F3D1026802F1140353E8003F23F0010322
:1025F000143242E800310029F3D1026802F11403D9
:1026000053E8003F23F04003143242E80031002930
:10261000F3D1202380F83E30036B012B05D0036BF0
:10262000012B0FD0FFF7D1FD08BD026802F10C03AA
:1026300053E8003F23F010030C3242E80031002938
:10264000F3D1ECE7818DFFF7F7FDEDE730B583B00F
:10265000044613468162828500250564222280F8A3
:102660003E20826B2048D063A26B20481064A26B8E
:102670001F48D064A26B156520680A46011DA06B37
:10268000FFF78EF8019523681A6801925B68019341
:10269000019B84F83C5023695BB1226802F10C0372
:1026A00053E8003F43F480730C3242E800310029C4
:1026B000F3D1226802F1140353E8003F43F0010311
:1026C000143242E800310029F3D1226802F11403E8
:1026D00053E8003F43F04003143242E80031002940
:1026E000F3D1002003B030BDB72500089D250008B8
:1026F000D121000808B590F83E30DBB2202B0DD177
:1027000071B17AB190F83C30012B0DD0012380F8E3
:102710003C3000230363FFF799FF00E0022008BD6F
:102720000120FCE70120FAE70220F8E708B50D4890
:102730000D4B03604FF48273436000238360C360DA
:10274000036143614FF400728261C36103624362BB
:1027500083620A23C36200F023F900B908BDFDF7C4
:10276000C5FEFBE7A40300200030014030B589B06E
:102770000023039304930593069307930268334B56
:102780009A4201D009B030BD04460025019503F5F9
:1027900084335A6C42F480525A645A6C02F4805268
:1027A0000192019A02951A6B42F001021A631B6BA7
:1027B00003F001030293029BE0230393022304939B
:1027C000032306930523079303A92148FEF768FD19
:1027D0002048214B03604FF0C06343604023836077
:1027E000C5604FF48063036145618561C561056221
:1027F0004562FEF76FFF10BB164BA3649C6317483E
:10280000174B03604FF0C063436000238360C360D5
:102810004FF48062026143618361C361036243627A
:10282000FEF758FF70B90D4BE3649C63002205214D
:102830002320FFF747F92320FFF77CF9A2E7FDF7F4
:1028400055FED9E7FDF752FEEDE700BF003001402D
:10285000000002404403002058640240E4020020CB
:10286000106402402DE9F04782B0054688461746BD
:102870001E46FFF793F90A9B1B1A03EB0609FFF7A5
:102880008DF982462B4B1B68C3F3CB3309FB03F353
:1028900001932B689C6838EA04030CBF4FF0010CCD
:1028A0004FF0000CBC4540D0B6F1FF3FF1D0FFF730
:1028B00075F9A0EB0A0048450AD2B9F1000F07D01C
:1028C000019A02B14A46019B013B01939146E0E720
:1028D0002A68536823F0E00353606B68B3F5827F86
:1028E0000BD0AB6AB3F5005F14D0012385F85130EB
:1028F000002385F85030032018E0AB68B3F5004F93
:1029000002D0B3F5806FECD12A68136823F040033E
:102910001360E6E72A68136823F4005313602A68FB
:10292000136843F400531360DFE7002002B0BDE8F2
:10293000F08700BF0800002010B584B00446164B95
:102940001868164BA3FB0030400D4FF47A7303FB5D
:1029500000F003906368B3F5827F0BD0039BBBB19B
:10296000039B013B039323689B6813F0800FF5D111
:1029700000200EE000920B46002280212046FFF747
:1029800071FF30B1636D43F020036365032000E005
:10299000002004B010BD00BF08000020819F5E161B
:1029A00000285AD010B50446436A33B94368B3F5DA
:1029B000827F05D00023C36102E0002303614361ED
:1029C0000023A36294F85130002B40D0022384F8F6
:1029D00051302268136823F040031360636803F4E6
:1029E0008273A26802F404421343E26802F40062B4
:1029F0001343226902F002021343626902F00102EA
:102A00001343A26902F400721343E26902F0380230
:102A10001343226A02F080021343A26A02F40052B6
:102A2000216813430B60638B03F00403626A02F0B6
:102A30001002216813434B602268D36923F40063BA
:102A4000D36100206065012384F8513010BD84F803
:102A500050302046FFF78AFEB8E70120704700009B
:102A600038B590F85030012B61D00446012380F82E
:102A7000503090F85150EDB29D4252D1002951D0C2
:102A8000002A4FD0032380F85130002343650163AF
:102A90008286C2868363436403648387C3878368B3
:102AA000B3F5004F2AD0A36C224A1A64A36C224AC1
:102AB000DA63A36C214ADA64A36C00221A652268E7
:102AC000E38E9BB20C32216BA06CFEF769FE0146CF
:102AD000F8B923681A6812F0400F03D11A6842F05F
:102AE00040021A602268536843F020035360226852
:102AF000536843F0020353600D4613E00268136805
:102B000023F0400313600268136843F480431360AA
:102B1000C9E7636D43F010036365012384F8513006
:102B200000E00225002384F85030284638BD0225F5
:102B3000FBE700BF452B0008732B0008512B000852
:102B40007047704708B5806BFFF7FBFF08BD704703
:102B500008B5806B0268536823F003035360436D2C
:102B600043F010034365012380F85130FFF7EFFF76
:102B700008BD30B583B00546846BFFF70FF82B68AE
:102B80001B6813F4807F23D1024621684B6823F031
:102B900020034B6021684B6823F002034B606421E3
:102BA0002046FFF7C9FE18B1636D43F0200363654B
:102BB000A36833B901932368DA6801929B68019393
:102BC000019B0023E386012384F85130636D23B910
:102BD0002046FFF7B5FF03B030BD2046FFF7B7FF33
:102BE000F9E7000030B585B0044602685168936883
:102BF000C3F3801013F0400F05D113F0010F02D082
:102C000011F0400F69D113F0020F02D011F0800FC4
:102C100067D1C3F3401513F0200F03D110B913F49B
:102C2000807F61D011F0200F5ED078B194F8510010
:102C3000C0B203285AD0606D40F0040060650020E7
:102C40000090D068009090680090009865B1606D29
:102C500040F00100606500200290906802901068CA
:102C600020F040001060029A13F4807F09D0636D59
:102C700043F0080363650023039323689B68039371
:102C8000039B636D002B2FD02268536823F0E00371
:102C90005360012384F8513011F0030F2ED02268C5
:102CA000536823F003035360E36C4BB1154A1A6574
:102CB000E06CFEF7F4FD18B1636D43F0400363650B
:102CC000A36C8BB10F4A1A65A06CFEF7E8FD58B1F2
:102CD000636D43F04003636506E0236C204698472C
:102CE00002E0636C2046984705B030BD0023019395
:102CF000D368019393680193019BF5E72046FFF7A2
:102D000026FFF1E7092D000808B5806B0023C38773
:102D1000C386FFF71CFF08BD00B585B000230093F4
:102D20000193029303931548154A02604FF48032D1
:102D3000426083600361037680F82030C362114AE9
:102D40008262C3600122C26180F83030426100F0CB
:102D5000F1F868B90423009301230193002302933F
:102D60006946064800F0B6F928B905B05DF804FBDD
:102D7000FDF7BCFBEEE7FDF7B9FBF6E7FC0300202F
:102D8000002001400100000F10B588B0002303931C
:102D90000493059306930793026803F1804303F5B8
:102DA00090339A4201D008B010BD0024019403F57D
:102DB0008C335A6C42F480725A645A6C02F48072FA
:102DC0000192019A02941A6B42F001021A631B6B82
:102DD00003F001030293029B102303930323049344
:102DE00003A90648FEF75CFA224605211220FEF7E9
:102DF00069FE1220FEF79EFED5E700BF00000240EC
:102E00004A4B5A6822F440325A605A6841680A4371
:102E10005A600268536823F48073536002685368F1
:102E2000016943EA012353600268536823F0407349
:102E300053600268536881680B435360026893686B
:102E400023F40063936002689368C1680B43936046
:102E5000826A374B9A4257D00268936823F07063B6
:102E6000936002689368816A0B4393600268936879
:102E700023F04053936002689368C16A0B439360E8
:102E80000268936823F00203936002689368017EEE
:102E900043EA4103936090F82030002B3FD0026852
:102EA000536843F4006353600268536823F460433B
:102EB000536001684B68426A013A43EA42334B600F
:102EC0000268D36A23F47003D3620168CB6AC269D3
:102ED000013A43EA0253CB620268936823F4007319
:102EE00093600268936890F8301043EA412393603E
:102EF0000268936823F48063936002689368416971
:102F000043EA8123936070470268936823F07063FB
:102F100093600268936823F040539360B0E70268BF
:102F2000536823F400635360CAE700BF00230140E5
:102F30000100000F38B310B50446036C43B1236C95
:102F400013F0100F0BD00120002384F83C3010BD8B
:102F5000FFF71AFF0023636484F83C30EFE7236C2B
:102F600023F4885323F0020343F002032364204632
:102F7000FFF746FF00206064236C23F0030343F057
:102F800001032364E0E701207047704770477047F2
:102F900070B5044603681E685D6816F0020F2FD0F6
:102FA00005F0200262B3026C12F0100F03D1026C24
:102FB00042F4007202649A6812F0405F19D1227ED6
:102FC000BAB9DA6A12F4700F03D09A6812F4806FFB
:102FD0000FD15A6822F020025A60236C23F48073C8
:102FE0002364236C13F4805F03D1236C43F001034B
:102FF00023642046FFF7C9FF23686FF012021A60AE
:1030000005F0800316F0040F37D0002B35D0236C69
:1030100013F0100F03D1236C43F40053236423688F
:103020009A6812F4401F21D19A6B12F4401F03D00A
:103030009A6812F4806F19D15A6812F4806F15D112
:103040009A6812F0405F11D1227E7AB95A6822F054
:1030500080025A60236C23F480532364236C13F49E
:10306000807F03D1236C43F001032364204600F0EA
:10307000FDF823686FF00C021A6005F0400316F0AB
:10308000010F05D023B123681B6813F0010F06D18F
:1030900005F0806516F0200F00D065B970BD236C77
:1030A00043F4803323642046FFF770FF23686FF0FA
:1030B00001021A60ECE7636C43F002036364236867
:1030C0006FF020051D602046FFF761FF23681D603B
:1030D000E4E7000030B482B00023019390F83C3064
:1030E000012B00F0BB80012380F83C300B68092BDA
:1030F00041D90468E2689BB203EB43031E3B4FF0E7
:10310000070C0CFA03F322EA0303E3600468E268A5
:103110000B8803EB43031E3B8D6805FA03F313434F
:10312000E3604B68062B3DD80468626B03EB8303B6
:10313000053B4FF01F0C0CFA03F322EA0303636311
:103140000468626B4B6803EB8303053BB1F800C076
:103150000CFA03F3134363630268414B9A4251D064
:1031600002683F4B9A4256D0002380F83C30184604
:1031700002B030BC7047046822699BB203EB430382
:103180004FF0070C0CFA03F322EA030323610468EF
:1031900022690B8803EB43038D6805FA03F313439D
:1031A0002361BEE70C2B16D805682A6B03EB83035B
:1031B000233B1F2404FA03F322EA03032B6305686D
:1031C0002A6B4B6803EB8303233B0C8804FA03F35D
:1031D00013432B63C0E70568EA6A03EB8303413BB3
:1031E0001F2404FA03F322EA0303EB620568EA6A88
:1031F0004B6803EB8303413B0C8804FA03F313434E
:10320000EB62A9E70B68122BAAD1164A536843F464
:1032100080035360A4E70B68103B012BA4D8114A2C
:10322000536843F4000353600B68102B9CD10E4B82
:103230001B6802F1467202F52E3202F28332A2FBC3
:1032400003239B0C03EB83035B00019302E0019BD0
:10325000013B0193019B002BF9D185E7022087E711
:1032600000200140002301400800002070470000BA
:1032700000B583B00023009301930F480F4A02600A
:103280005322426083604FF6FF72C2608361FDF794
:1032900051FC50B900230093019369460648FDF79D
:1032A00075FC28B903B05DF804FBFDF71FF9F1E7E1
:1032B000FDF71CF9F6E700BF4404002000100040B1
:1032C00000B583B00023009301930F480F4A0260BA
:1032D00042F2CF02426083604FF6FF72C2608361A8
:1032E000FDF728FC50B90023009301936946064876
:1032F000FDF74CFC28B903B05DF804FBFDF7F6F8C8
:10330000F1E7FDF7F3F8F6E78C0400200014004025
:1033100082B00368104A934204D0104A93420ED000
:1033200002B07047002300930D4B1A6C42F010025C
:103330001A641B6C03F010030093009BF0E700235A
:103340000193074B1A6C42F020021A641B6C03F0C5
:1033500020030193019BE3E70010004000140040AC
:103360000038024008B5012001F0CAFBFBE700B5B8
:1033700083B000F00DFE019002F072F84FF4FA7184
:1033800001A800F013FFF7E708B5074A0021074836
:1033900001F058FB064B1860064A0021064801F070
:1033A00051FB064B186008BD3C60000865330008FF
:1033B000D4040020606000086F330008D8040020A7
:1033C00000F1080343604FF0FF328260C360036185
:1033D00000230360704700230361704743684B601C
:1033E0009A688A60516099600861036801330360DC
:1033F000704730B40D68B5F1FF3F11D000F10803FC
:103400001C465B681A68AA42FAD963684B609960E7
:103410008C606160086103680133036030BC7047F1
:103420000469F2E70369416882688A604168516013
:103430005A68824206D0002202611A68013A1A6074
:103440001868704782685A60F5E710B5044601F0C5
:1034500009FDA26BE36B9A4204D0002401F024FD25
:10346000204610BD0124F9E710B5044601F0FAFC2E
:10347000A36B23B9012401F017FD204610BD0024E1
:10348000F9E770B504461546866B026C5AB90368B5
:103490001BB100200136A66370BD806801F026F8DC
:1034A0000023A360F6E76DB9406802F0C9FC226C06
:1034B000636813446360A268934219D3236863600E
:1034C0002846E7E7C06802F0BBFC226C5142E36883
:1034D0009B1AE3602268934202D2A3680B44E36024
:1034E000022D01D00020D5E726B1013E0020D1E712
:1034F0002846CFE70020CDE70346026C6AB110B53D
:103500000846D9681144D9609C68A14201D3196862
:10351000D960D96802F094FC10BD704738B50546F3
:1035200001F0A0FC95F8454064B201E0013C64B2B2
:10353000002C0ADD6B6A43B105F1240000F02CFF7A
:103540000028F3D000F0BCFFF0E7FF2385F84530FA
:1035500001F0AAFC01F086FC95F8444064B201E059
:10356000013C64B2002C0ADD2B6943B105F1100067
:1035700000F012FF0028F3D000F0A2FFF0E7FF23D5
:1035800085F8443001F090FC38BD38B5E0B10D4607
:10359000044601F067FC2368E26B216C01FB0230FA
:1035A000A0600020A0636360013A02FB0133E36086
:1035B000FF2384F8443084F84530FDB9236963B9AA
:1035C00001F072FC012038BD4FF0500383F31188E5
:1035D000BFF36F8FBFF34F8FFEE704F1100000F0D1
:1035E000DBFE0028ECD04FF0E0234FF08052C3F810
:1035F000042DBFF34F8FBFF36F8FE1E704F110008D
:10360000FFF7DEFE04F12400FFF7DAFED8E738B555
:103610001D46049C0B4649B92460E06323640121E4
:103620002046FFF7B2FF84F84C5038BD2260F4E723
:1036300040B94FF0500383F31188BFF36F8FBFF38E
:103640004F8FFEE710B584B01C46844653B192B14B
:1036500089B94FF0500383F31188BFF36F8FBFF325
:103660004F8FFEE74FF0500383F31188BFF36F8F46
:10367000BFF34F8FFEE76AB150230393039B502B98
:1036800013D04FF0500383F31188BFF36F8FBFF354
:103690004F8FFEE70029EFD04FF0500383F31188DE
:1036A000BFF36F8FBFF34F8FFEE7039B012384F8B7
:1036B000463000949DF818306046FFF7A8FF20467A
:1036C00004B010BDF0B585B0019288B10F461D461B
:1036D0000446B1B1022D20D1E36B012B1DD04FF078
:1036E000500383F31188BFF36F8FBFF34F8FFEE753
:1036F0004FF0500383F31188BFF36F8FBFF34F8FE9
:10370000FEE7036C002BE5D04FF0500383F31188E4
:10371000BFF36F8FBFF34F8FFEE700F0D7FE064673
:1037200058B9019B002B48D04FF0500383F3118808
:10373000BFF36F8FBFF34F8FFEE700263DE02A46B1
:1037400039462046FFF79DFE636A7BB948B14FF0CA
:10375000E0234FF08052C3F8042DBFF34F8FBFF327
:103760006F8F01F0A1FB012005B0F0BD04F1240032
:1037700000F012FE0028F4D04FF0E0234FF080520A
:10378000C3F8042DBFF34F8FBFF36F8FE9E701F04C
:103790008BFB0020E8E702A800F044FE012619E0B8
:1037A000002384F8443021E0002384F8453023E0EE
:1037B0002046FFF7B3FE00F07DFC01F053FBA26B47
:1037C000E36B9A42BBD3022DB9D0019B002BDED014
:1037D000002EE0D001F068FB00F0D2FB01F042FBCC
:1037E00094F8442052B2B2F1FF3FD9D094F845206A
:1037F00052B2B2F1FF3FD7D001F056FB01A902A8A7
:1038000000F01CFED8B92046FFF71FFE0028CFD0DD
:10381000019904F1100000F08BFD2046FFF77EFEB9
:1038200000F048FC0028C8D14FF0E0234FF0805250
:10383000C3F8042DBFF34F8FBFF36F8FBDE7204652
:10384000FFF76CFE00F036FC00208DE72DE9F84311
:1038500090B10F4616461C460546B1B1022C20D148
:10386000EB6B012B1DD04FF0500383F31188BFF396
:103870006F8FBFF34F8FFEE74FF0500383F3118834
:10388000BFF36F8FBFF34F8FFEE7036C002BE5D0C4
:103890004FF0500383F31188BFF36F8FBFF34F8F47
:1038A000FEE701F005FCEFF311894FF0500383F3BD
:1038B0001188BFF36F8FBFF34F8FAA6BEB6B9A42E8
:1038C00006D3022C04D0002089F31188BDE8F883C8
:1038D00095F845804FFA88F8AB6B22463946284662
:1038E000FFF7CFFDB8F1FF3F06D008F101035BB24F
:1038F00085F845300120E7E76B6A0BB90120E3E763
:1039000005F1240000F048FD18B126B10120306017
:10391000DAE70120D8E70120D6E7F0B585B00192BB
:1039200090B10F460446C1B100F0D0FD064600BB81
:10393000019B002B5ED04FF0500383F31188BFF33F
:103940006F8FBFF34F8FFEE74FF0500383F3118863
:10395000BFF36F8FBFF34F8FFEE7036C002BE3D0F5
:103960004FF0500383F31188BFF36F8FBFF34F8F76
:10397000FEE700263EE039462046FFF7BDFD013D4B
:10398000A563236923B901F08FFA012005B0F0BDCA
:1039900004F1100000F000FD0028F4D04FF0E02307
:1039A0004FF08052C3F8042DBFF34F8FBFF36F8FDA
:1039B000E9E701F079FA0020E8E702A800F032FD1B
:1039C000012621E0002384F8443029E0002384F814
:1039D00045302BE02046FFF7A1FD00F06BFB09E02E
:1039E0002046FFF79BFD00F065FB2046FFF73CFDFE
:1039F00000283FD101F036FAA56B002DBBD1019B09
:103A0000002BD6D0002ED8D001F04EFA00F0B8FA34
:103A100001F028FA94F844305BB2B3F1FF3FD1D003
:103A200094F845305BB2B3F1FF3FCFD001F03CFAE0
:103A300001A902A800F002FD0028D1D12046FFF71D
:103A400013FD0028C6D0019904F1240000F070FC99
:103A50002046FFF763FD00F02DFB0028CAD14FF090
:103A6000E0234FF08052C3F8042DBFF34F8FBFF314
:103A70006F8FBFE7002089E70023072B0CD8074A88
:103A800052F833200AB10133F7E7044A42F8331001
:103A900002EBC30358607047704700BFDC0400208E
:103AA00070B504460D46164601F0DCF994F8443032
:103AB0005BB2B3F1FF3F0DD094F845305BB2B3F188
:103AC000FF3F0BD001F0F0F9A36B5BB12046FFF78D
:103AD00025FD70BD002384F84430EDE7002384F811
:103AE0004530EFE73246294604F1240000F038FC67
:103AF000ECE70000084B1B681B6823B9074B4FF02D
:103B0000FF321A607047044B1B68DB68DB685A6839
:103B1000024B1A60704700BF20050020C809002032
:103B20002DE9F04780460D4617469946089EDDF878
:103B300024A00A9C9200A521206B02F08FF9236B30
:103B400007F18042013A03EB820727F00707B5B37C
:103B50004FF0000CBCF10F0F0BD815F80C2004EB44
:103B60000C0383F8342015F80C3013B10CF1010C60
:103B7000F0E7002384F84330372E00D93726E66279
:103B8000E66400252565201DFFF725FC04F11800DB
:103B9000FFF721FC2461C6F13806A6616462656501
:103BA00084F858504A464146384601F02DF92060C5
:103BB000BAF1000F01D0CAF80040BDE8F087002339
:103BC00084F83430D8E7000038B5002407E004EB6F
:103BD000840293000E481844FFF7F2FB0134372C9F
:103BE000F5D90C4D2846FFF7EBFB0B4C2046FFF7B1
:103BF000E7FB0A48FFF7E4FB0948FFF7E1FB094848
:103C0000FFF7DEFB084B1D60084B1C6038BD00BF92
:103C1000280500209C090020B0090020D4090020BC
:103C2000000A0020EC0900202005002024050020C7
:103C300010B5044601F016F9224A136801331360E7
:103C4000214B1B685BB1214B1B686BB91E4B1B687A
:103C5000DA6AE36A9A4207D81B4B1C6004E01A4BED
:103C60001C601368012B29D0194A136801331360B3
:103C70006364E06A174B1B68984201D9154B1860C2
:103C800000EB8000211D144B03EB8000FFF7A6FB27
:103C900001F00AF90D4B1B687BB10B4B1B68DA6A0C
:103CA000E36A9A4209D24FF0E0234FF08052C3F802
:103CB000042DBFF34F8FBFF36F8F10BDFFF784FF4D
:103CC000D2E700BF880900201C050020E809002079
:103CD00094090020980900202805002010B504460A
:103CE00090F8593063B1012B11D0022B0ED04FF058
:103CF000500383F31188BFF36F8FBFF34F8FFEE73D
:103D0000006B01F005F8204601F002F810BD00F04C
:103D1000FFFFFBE70F4B1B68D3B110B501F0A2F812
:103D20000D4BDB68DC68201DFFF77CFB0B4A13683A
:103D3000013B1360074A1368013B136001F0B4F8BC
:103D40002046FFF7CBFF034B1B68002BE6D110BDCD
:103D5000704700BF8C090020000A0020880900205D
:103D600008B5FFF7D7FF074B1B68012BF9D94FF0B8
:103D7000E0234FF08052C3F8042DBFF34F8FBFF301
:103D80006F8FEEE72805002070B504460D46174BEF
:103D90001E68174B18680430FFF744FBB4F1FF3F6F
:103DA0000DD03444124B1B685C60A64210D9114BF5
:103DB00018680F4B19680431FFF71BFB70BD002D0D
:103DC000EFD00B4B196804310B48FFF707FBF5E701
:103DD0000A4B1868064B19680431FFF70AFB084BB9
:103DE0001B68A342EAD9064B1C60E7E7140A0020CF
:103DF0001C05002024050020EC09002020050020DF
:103E0000C809002030B587B00B9C7CB10C9DB5B1C2
:103E10005C250495049D5C2D1AD04FF0500383F36C
:103E20001188BFF36F8FBFF34F8FFEE74FF0500342
:103E300083F31188BFF36F8FBFF34F8FFEE74FF00F
:103E4000500383F31188BFF36F8FBFF34F8FFEE7EB
:103E5000049D0C9D2C63022485F859400024039492
:103E6000029505AC01940A9C0094FFF759FE0C984A
:103E7000FFF7DEFE059807B030BD2DE9F04385B0B1
:103E80000746884614461E46900000F0C3FE00B365
:103E900081465C2000F0BEFE0546B0B1C0F830900F
:103EA000E5B1002385F85930039302950D9B0193EA
:103EB0000C9B00933346224641463846FFF730FEBE
:103EC0002846FFF7B5FE012005E0484600F020FF38
:103ED000E6E74FF0FF3005B0BDE8F0834FF0FF306C
:103EE000F9E7000010B588B000240594069407AAED
:103EF00006A905A800F012FE059B0293069B0193FC
:103F000000942346079A18491848FFF77BFF184B7F
:103F1000186040B100F09EFB012806D0B0F1FF3FD1
:103F200018D008B010BD0020F6E74FF0500383F31F
:103F30001188BFF36F8FBFF34F8F0E4B4FF0FF32DF
:103F40001A600D4B01221A600C4B00221A6001F01E
:103F500023F8E6E74FF0500383F31188BFF36F8F28
:103F6000BFF34F8FFEE700BF84600008613D00088B
:103F7000C4090020C8090020E8090020140A002014
:103F8000024A136801331360704700BF9009002094
:103F9000014B1868704700BF140A0020F8B53A4B6F
:103FA0001B68002B69D1394B1D6801351D60C5B9EF
:103FB000374B1B681B6843B14FF0500383F31188E4
:103FC000BFF36F8FBFF34F8FFEE7314A1168314B5C
:103FD000186810601960304A136801331360FFF7E6
:103FE00089FD2E4B1B68AB423DD900272C4B1B682B
:103FF000DB6A03EB83039A002A4B9B58012B00D901
:104000000127294B1B68002B3CD001273AE00127F0
:104010001F4B1B681B6843B31D4B1B68DB68DC68C8
:1040200063689D4226D3261D3046FFF7FBF9A36A3D
:104030001BB104F11800FFF7F5F9E36A1B4A126897
:10404000934201D9194A136003EB83039A00314666
:1040500014481044FFF7C2F9E26A114B1B68DB6A8F
:104060009A42D4D2D4E70027D2E70C4B4FF0FF326C
:104070001A60BBE7094A1360B8E70D4A13680133B9
:10408000136000273846F8BD90090020140A00206C
:104090002005002024050020CC090020C8090020AC
:1040A0001C05002028050020180A0020980900207F
:1040B000D009002038B5354B1B6843B94FF0500389
:1040C00083F31188BFF36F8FBFF34F8FFEE700F0CC
:1040D000C9FE2E4B1A68013A1A601B68002B4FD19B
:1040E0002B4B1B680BB900244BE00024294B1B68A9
:1040F0001BB3284BDB68DC6804F11800FFF792F96A
:10410000251D2846FFF78EF9E06A234B1B6898426D
:1041100001D9214B186000EB800029461F4B03EBAF
:104120008000FFF75BF9E26A1D4B1B68DB6A9A426D
:10413000DCD31C4B01221A60D8E70CB1FFF7DAFC84
:10414000194B1C6884B9174B1C68D4B14FF0E0239D
:104150004FF08052C3F8042DBFF34F8FBFF36F8F22
:1041600001240EE0013C07D0FFF718FF0028F9D02A
:104170000C4B01221A60F5E70B4B00221A60E2E7B4
:10418000002400F091FE204638BD00BF90090020B9
:1041900088090020D4090020980900202805002063
:1041A0001C050020180A0020D009002038B558B19D
:1041B0000C46054689B94FF0500383F31188BFF3CD
:1041C0006F8FBFF34F8FFEE74FF0500383F31188DB
:1041D000BFF36F8FBFF34F8FFEE71B4B1B6843B1DD
:1041E0004FF0500383F31188BFF36F8FBFF34F8FEE
:1041F000FEE7FFF7C5FE154B18682B681C44834289
:1042000009D9A34201D82C600EE0A04201D32C6052
:104210000AE02C6004E0A34201D8A04212D22C6034
:104220000021201AFFF7B0FDFFF744FF48B94FF017
:10423000E0234FF08052C3F8042DBFF34F8FBFF33C
:104240006F8F38BD2C60EFE790090020140A002022
:1042500010B5A8B10446104B1B6843B14FF0500392
:1042600083F31188BFF36F8FBFF34F8FFEE7FFF724
:1042700087FE00212046FFF787FDFFF71BFF48B9A7
:104280004FF0E0234FF08052C3F8042DBFF34F8F5F
:10429000BFF36F8F10BD00BF900900201F4B1B683C
:1042A0001BB11F4B01221A6070471D4B00221A6080
:1042B0001C4B1B6803EB83018A001B498A585AB9BF
:1042C0000BB1013BF6E74FF0500383F31188BFF3C6
:1042D0006F8FBFF34F8FFEE703EB830082000A442A
:1042E00050684068506003EB830C4FEA8C02083240
:1042F000114488420BD003EB830291000A4A0A441E
:104300005268D168094A1160064A136070474068D4
:1043100062469100044A0A445060ECE7900900208C
:10432000180A002098090020280500201C050020FC
:1043300058B110B50C46094A11681831FFF759F801
:1043400001212046FFF720FD10BD4FF0500383F3FD
:104350001188BFF36F8FBFF34F8FFEE71C0500205E
:1043600038B570B10D4614460A4A11681831FFF786
:1043700035F80CB14FF0FF3521462846FFF704FD14
:1043800038BD4FF0500383F31188BFF36F8FBFF335
:104390004F8FFEE71C05002038B5C368DC6824B3E6
:1043A00004F118052846FFF73DF8184B1B682BBB96
:1043B000251D2846FFF736F8E06A154B1B68984222
:1043C00001D9134B186000EB80002946114B03EB19
:1043D0008000FFF703F8E26A0F4B1B68DB6A9A4222
:1043E00011D901200D4B186038BD4FF0500383F3F5
:1043F0001188BFF36F8FBFF34F8FFEE72946084840
:10440000FEF7ECFFE7E70020EEE700BF9009002091
:1044100098090020280500201C050020180A00200B
:10442000D4090020034B1B680360034B1B684360E7
:10443000704700BFCC090020140A0020F8B5C8B1AD
:104440000C460546F9B100F00DFD1B4B19686B6871
:10445000C81A2268B2F1FF3F26D0184E36682F687E
:10446000B74201D08B4224D9824215D80023236061
:1044700001241AE04FF0500383F31188BFF36F8FCC
:10448000BFF34F8FFEE74FF0500383F31188BFF364
:104490006F8FBFF34F8FFEE75B1A134423602846EC
:1044A000FFF7C0FF002400E0002400F0FDFC2046E0
:1044B000F8BD0124F9E700BF140A0020CC09002050
:1044C000014B01221A607047180A0020054B1B6837
:1044D00033B1054B1B680BB10020704702207047B9
:1044E00001207047E80900209009002000283BD0F7
:1044F00038B504461E4B1B68834208D04FF050036A
:1045000083F31188BFF36F8FBFF34F8FFEE7036D07
:1045100043B94FF0500383F31188BFF36F8FBFF39C
:104520004F8FFEE7013B0365C16AC26C91421DD00B
:104530000BB1002038BD051D2846FEF773FFE06C67
:10454000E062C0F13803A3610A4B1B68984201D9AD
:10455000084B186000EB80002946074B03EB8000F6
:10456000FEF73CFF0120E5E7002070470020E1E76F
:104570001C0500209809002028050020064B1A6819
:1045800013682BB90123036023B9D36818687047F7
:104590000023F8E7002070471C0A002008B541609E
:1045A000006191420CD8D21A83699A4201D301204A
:1045B00008BD011D094B1868FEF71BFF0020F7E737
:1045C0009A4201D2994206D2011D054B1868FEF7A6
:1045D00010FF0020ECE70120EAE700BF200A0020DE
:1045E0001C0A002030B583B000F03CFC114B1B6866
:1045F0001BB100F059FC03B030BD0F4D2846FEF74B
:10460000DFFE0E4C2046FEF7DBFE0D4B1D600D4B12
:104610001C60002300930C4B0C4A10210A20FFF76A
:1046200007F8044B18600028E3D00949FFF724FA83
:10463000DFE700BF400B0020C40A0020D80A00209A
:104640001C0A0020200A0020F00A0020240A002072
:104650008C60000810B588B0FFF7C4FF124B1B68D0
:10466000CBB100240594069407AA06A905A800F07A
:1046700061FA059B0293069B019302230093234654
:10468000079A0A490A48FFF7BDFB0A4B186010B1A8
:10469000012008B010BD4FF0500383F31188BFF321
:1046A0006F8FBFF34F8FFEE7400B00209460000830
:1046B000B9490008440B0020B8B19C46034618488D
:1046C000006858B300B585B00091019202930529A6
:1046D0001CDCFFF7FBFE022810D000231A466946B7
:1046E0000F480068FEF7EEFF15E04FF0500383F32C
:1046F0001188BFF36F8FBFF34F8FFEE70023069A39
:10470000694607480068FEF7DDFF04E000236246C3
:104710006946FFF79BF805B05DF804FB0020704781
:10472000400B002070B582B01B4B1B681A6862B347
:10473000DB681E68DC68251D2846FEF773FE236AC9
:104740002046984794F8283013F0040FECD0A36962
:1047500033449E4207D26360246129460E4B186899
:10476000FEF747FEE0E7002100910B463246204667
:10477000FFF7A2FF0028D7D14FF0500383F3118831
:10478000BFF36F8FBFF34F8FFEE7044A10680249F3
:104790000860136002B070BD1C0A0020200A0020CF
:1047A00038B50546FFF7F4FB0446074B1B68834208
:1047B00005D800232B60044B1C60204638BDFFF752
:1047C000B1FF01232B60F6E7EC0A002070B582B040
:1047D00006460D4617490968C968CC68201DFEF7D2
:1047E00021FE94F828C01CF0040F08D12CF0010C15
:1047F00084F828C0236A2046984702B070BDA1699A
:1048000033462A4631442046FFF7C8FE0028F1D03F
:10481000002100910B4632462046FFF74DFF00284D
:10482000E8D14FF0500383F31188BFF36F8FBFF3CC
:104830004F8FFEE71C0A002070B582B006460C467A
:10484000FFF79EFB01A8FFF7ABFF019B33BB0546BB
:104850000CB9B04219D224B1124A12681268DAB9FE
:1048600001242246711B104B1868FFF719F9FFF756
:1048700021FCA8B94FF0E0234FF08052C3F8042D7B
:10488000BFF34F8FBFF36F8F0AE0FFF713FC29468A
:104890003046FFF79BFF03E01C46E2E7FFF70AFC08
:1048A00002B070BD200A0020400B002010B588B077
:1048B00002E0049B002B0FDA002204A93D4B18688C
:1048C000FFF72BF8002873D0049B002BF1DA07992F
:1048D0000698059B9847ECE7069C636913B1201D79
:1048E000FEF7A0FD03A8FFF75BFF049B092BE3D8AD
:1048F000DFE803F00505053037500505303794F83B
:10490000283043F0010384F82830059BA169024652
:1049100019442046FFF742FE0028CDD0236A2046E6
:10492000984794F8283013F0040FC5D0A2690021ED
:1049300000910B46059802442046FFF7BDFE002873
:10494000BAD14FF0500383F31188BFF36F8FBFF3D9
:104950004F8FFEE794F8283023F0010384F82830C5
:10496000AAE794F8283043F0010384F82830059929
:10497000A16131B10346024601442046FFF70EFE15
:104980009AE74FF0500383F31188BFF36F8FBFF3A3
:104990004F8FFEE794F8283013F0020F04D023F075
:1049A000010384F8283087E7204600F0B1F983E757
:1049B00008B010BD400B002000B583B001A8FFF780
:1049C000DDFD0199FFF738FFFFF770FFF6E708B547
:1049D0004FF0E0231B69FFF779FD012800D108BDE6
:1049E00000F0B0FAFBE70000EFF305832BB9064BAC
:1049F000186828B901221A6070476FF005007047E7
:104A00004FF0FF30704700BFA40D0020EFF3058387
:104A100073B90A4B1B68012B0DD110B50024084B4C
:104A2000DC77064B02221A60FFF75CFA204610BDC5
:104A30006FF0050070474FF0FF307047A40D002065
:104A400000ED00E0F0B587B000240594EFF3058495
:104A500074BB68B322B31568936903B918235C1E4D
:104A6000372C49D8546814F0010F47D156696EB1FC
:104A70004FEA960C94682CB1D7685B2F02D917695E
:104A800007B1C6B92CB14FF0FF340EE04FF0800CE7
:104A9000F0E7D4688CB9146994B14FF0FF3404E0A6
:104AA0001546002418234FF0800C012C0AD0ACB11D
:104AB000059807B0F0BD0124F7E74FF0FF34F4E7A5
:104AC0000024F2E7146992680292019400930B4665
:104AD00062462946FFF796F90590E9E705AA019293
:104AE00000930B461FFA8CF22946FFF7C6F90128FE
:104AF000DED000230593DBE70020DAE70020D8E7CB
:104B000008B5EFF3058333B908B9002008BDFFF7F6
:104B10009FFB0020FAE76FF00500F7E7034B036007
:104B2000034B0B6080231360704700BF480D0020CB
:104B3000480B0020034B0360034B0B604FF4807362
:104B400013607047A8110020A80D0020124A12F02F
:104B5000070F1ED0D11D21F00701C1F5705313447A
:104B60000A460E480260002141601344083B23F0CE
:104B700007030B48036059601960991A516013606C
:104B8000084B1960084B1960084B4FF000421A603F
:104B900070474FF47053E4E7081200201C4E0020C9
:104BA00004120020104E00200C4E0020084E002061
:104BB000164B1A461B688342FBD3516802EB010C6B
:104BC000844509D0416800EB010C634509D00360BE
:104BD000904219D0106070474068014451601046FF
:104BE000F0E710B40A4C2468A3420BD05B68194468
:104BF000416013681B680360904200D010605DF84C
:104C0000044B70470460F7E7704700BF1C4E00205C
:104C10000412002070B50546FFF7B2F9364B1B6849
:104C2000A3B1364B1B681D424ED135B1083515F086
:104C3000070F02D025F007050835002D46D0304B70
:104C40001B68AB4251D32F4A146804E0FFF77EFF84
:104C5000E7E722461C466368AB4202D22368002B7A
:104C6000F7D1254B1B68A34241D01668083623684C
:104C7000136063685B1B102B10D9601910F0070FCD
:104C800008D04FF0500383F31188BFF36F8FBFF349
:104C90004F8FFEE743606560FFF78AFF626818493F
:104CA0000B689B1A0B60184909688B4201D21649A0
:104CB0000B60124B1B681343636000232360134A8D
:104CC00013680133136002E0002600E00026FFF7BE
:104CD000F1F916F0070F0CD04FF0500383F3118851
:104CE000BFF36F8FBFF34F8FFEE70026EFE700267D
:104CF000EDE7304670BD00BF04120020084E0020D2
:104D00000C4E00201C4E0020104E0020144E00209F
:104D1000002834D038B50446A0F1080550F8043C0A
:104D2000174A1268134208D14FF0500383F31188D9
:104D3000BFF36F8FBFF34F8FFEE750F8081C41B1F0
:104D40004FF0500383F31188BFF36F8FBFF34F8F82
:104D5000FEE723EA020340F8043CFFF711F954F898
:104D6000041C084A13680B4413602846FFF720FF11
:104D7000054A136801331360FFF79CF938BD70478B
:104D8000084E00200C4E0020184E002082B0002358
:104D900001930D4B1B68B3F1FF3F08D04FF0500358
:104DA00083F31188BFF36F8FBFF34F8FFEE74FF090
:104DB000500383F31188BFF36F8FBFF34F8F019BB5
:104DC000002BFCD002B070470C000020084800689F
:104DD000006880F308884FF0000080F3148862B602
:104DE00061B6BFF34F8FBFF36F8F00DF00BF0000CE
:104DF00008ED00E0DFF80C00016841F4700101608B
:104E00007047000088ED00E04FF0807340F8043CEC
:104E100021F0010140F8081C054B40F80C3C40F81B
:104E2000202C6FF0020340F8243C4438704700BF48
:104E30008D4D000800000000000000000000000090
:104E4000074B19680868B0E8F04F80F30988BFF392
:104E50006F8F4FF0000080F311887047AFF3008030
:104E60001C0500204FF0500383F31188BFF36F8FB0
:104E7000BFF34F8F0B4A136801331360012B00D02F
:104E800070474FF0E023D3F8043D13F0FF0FF7D045
:104E90004FF0500383F31188BFF36F8FBFF34F8F31
:104EA000FEE700BF0C000020094B1B6843B94FF020
:104EB000500383F31188BFF36F8FBFF34F8FFEE76B
:104EC000013B034A13600BB983F31188704700BF9D
:104ED0000C000020000000000000000000000000A6
:104EE000EFF30980BFF36F8F154B1A681EF0100F98
:104EF00008BF20ED108A20E9F04F10602DE909006D
:104F00004FF0500080F31188BFF34F8FBFF36F8FC6
:104F1000FFF7C4F94FF0000080F3118809BC19684D
:104F20000868B0E8F04F1EF0100F08BFB0EC108A10
:104F300080F30988BFF36F8F704700BFAFF3008025
:104F40001C05002008B54FF0500383F31188BFF310
:104F50006F8FBFF34F8FFFF721F828B14FF0E02399
:104F60004FF08052C3F8042D002383F3118808BD4D
:104F70004FF0E022002313619361054B1B68054944
:104F8000A1FB03139B09013B536107231361704786
:104F900008000020D34D62104FF0E023D3F8002D1D
:104FA0003D4B9A421CD04FF0E023D3F8002D3B4BF1
:104FB0009A421ED030B583B0394B1A78D2B20192E2
:104FC000FF221A701B78DBB28DF803309DF8033096
:104FD00003F05003334A1370334B07221A601BE06F
:104FE0004FF0500383F31188BFF36F8FBFF34F8FE0
:104FF000FEE74FF0500383F31188BFF36F8FBFF3C9
:105000004F8FFEE7284A1368013B13609DF8033079
:105010005B00DBB28DF803309DF8033013F0800F96
:10502000F0D1214B1B68032B08D04FF0500383F3C2
:105030001188BFF36F8FBFF34F8FFEE71B021A4A31
:10504000136003F4E0631360019BDBB2144A137036
:105050004FF0E024D4F8203D43F47003C4F8203D21
:10506000D4F8203D43F07043C4F8203DFFF780FFA3
:1050700000250E4B1D60FFF7BDFED4F8343F43F012
:105080004043C4F8343FFFF7A1FEFFF707F9FFF7ED
:105090007DFE284603B030BD71C20F4170C20F4182
:1050A00000E400E0244E0020284E00200C000020E8
:1050B000EFF305830F2B0FD9114A9B5CDBB2114A2A
:1050C00012789A4208D94FF0500383F31188BFF346
:1050D0006F8FBFF34F8FFEE74FF0E023D3F80C3D07
:1050E00003F4E063084A1268934208D94FF0500372
:1050F00083F31188BFF36F8FBFF34F8FFEE77047C5
:10510000F0E300E0244E0020284E00202DE9F0417D
:1051100005460C4600210B4693420BD2032909D8C1
:10512000E65C3A48405C864268D10131C9B201333D
:105130009BB2F1E7D8B24FF0000C05E001339BB20F
:105140000CF1010C1FFA8CFC934207D2E15C2F2971
:1051500018D93929F2D94FF0000E01E04FF0000EB6
:10516000934212D2BEF1080F0FD8E65C284911F81D
:105170000E108E4244D10EF1010E5FFA8EFE013305
:105180009BB2EDE74FF0000EEAE7DFB20026934254
:105190000BD2E15C2F291AD9392904D801339BB2EB
:1051A0000136B6B2F3E7002100E00021934210D2AD
:1051B00002290ED814F80380DFF858E01EF801E049
:1051C000F0451FD10131C9B201339BB2EEE7002196
:1051D000ECE7934204D1234413F8013C642B13D130
:1051E0005FFA8CF1204400F050FA2880F1B2E01907
:1051F00000F04BFA68800020BDE8F0810120FBE759
:105200000120F9E70120F7E70120F5E7A060000899
:10521000A4600008B060000808B508460E4B1B7972
:10522000A3B102220D4900F0FBFD28B900230C4A6E
:105230009373094A137108BD094B03229A73064BF5
:105240005A790849012000F00BFBF4E70248FFF708
:105250005DFF034B9873EEE7404E00209C60000812
:105260007C4E00202C4E002008B5054B054A9A6064
:1052700000229A730121044800F008FB08BD00BF1A
:105280007C4E0020404E00201952000810B5044604
:10529000808800F0BDFD206010BD000008B5034807
:1052A000034B5860FFF7F2FF08BD00BF484E0020D7
:1052B0007C4E002010B50446074B33F811300749E7
:1052C0000B80022200F078FC204600F04BFD08B174
:1052D000002010BD0220FCE7B46000085C4E0020F6
:1052E00038B504468588A80000F092FD2060E800EB
:1052F00000F08EFDC4F8060038BD000030B583B064
:1053000005460C460E49E0230B80062300930D4B07
:105310000222002000F098FC284600F023FD68B12E
:10532000084B19785A7842EA01222280DA781B79F0
:1053300043EA02236380002003B030BD0220FBE774
:105340005C4E0020504E0020002343E0026802EB38
:105350008302528807EE102AB8EE477ADFED2C6AF6
:10536000C7EE267AD0F8062002EBC3029FED297A19
:1053700067EE877A17EE901A5160D0F80E2007EE8C
:10538000102A77EE877A17EE902AC0F80E2002686E
:1053900032F8232007EE102AB8EE477AC7EE267AB5
:1053A0009FED1D7A67EE877AD0F806209FED1B7A75
:1053B00077EEC77A17EE901A42F83310D0F80E2025
:1053C00007EE102A77EE877A17EE902AC0F80E20A3
:1053D0000133DBB29AB281888A42B7D307EE901AC2
:1053E000F8EEE77AD0F80E2007EE102A87EE277A3B
:1053F00017EE103AC0F80E30D0F80A2007EE102A47
:10540000C7EE277A17EE903AC0F80A30704700BF0F
:1054100000FF7F470000C84200002F4300003442D5
:1054200010B582B00B4C0C4B1C600123A3800B49C0
:1054300045230193802300930B464022002000F077
:105440007BFC2046FFF74CFF04210020FFF732FFD2
:1054500002B010BD684E00207C4E002000040240C7
:1054600010B5054C21680020FFF748FF034B187367
:105470002046FFF769FF10BD684E00207C4E0020DB
:105480007047000008B50021014800F0FFF908BD91
:105490008154000810B582B08DF807000C4C002232
:1054A00080212046FCF78FF801224FF480612046CE
:1054B000FCF789F801220DF10701002000F0F8F94E
:1054C000012280212046FCF77EF802B010BD00BF0B
:1054D0000010024010B582B08DF807000C4C00227D
:1054E00080212046FCF76FF800224FF480612046AF
:1054F000FCF769F801220DF10701002000F0D8F94E
:10550000012280212046FCF75EF802B010BD00BFEA
:105510000010024010B50A4C00224FF400712046E2
:10552000FCF751F81E2000F0E5F801224FF400715D
:105530002046FCF748F81E2000F0DCF810BD00BF44
:105540000010024010B54F4C012280212046FCF78C
:105550003AF801224FF480712046FCF734F8FFF747
:10556000D9FFCF20FFF7B6FF0020FFF793FFC12040
:10557000FFF790FF3020FFF78DFFED20FFF7AAFF28
:105580005420FFF787FF0320FFF784FF1220FFF767
:1055900081FF8120FFF77EFF3A20FFF79BFF552018
:1055A000FFF778FF3620FFF795FF6020FFF772FFC7
:1055B0002620FFF78FFF0120FFF76CFFE020FFF7A9
:1055C00089FF0F20FFF766FF1720FFF763FF142006
:1055D000FFF760FF0920FFF75DFF0C20FFF75AFF80
:1055E0000620FFF757FF4320FFF754FF7520FFF712
:1055F00051FF3620FFF74EFF0820FFF74BFF132027
:10560000FFF748FF0520FFF745FF1020FFF742FF97
:105610000B20FFF73FFF0820FFF73CFFE120FFF7DB
:1056200059FF0020FFF736FF1F20FFF733FF23202D
:10563000FFF730FF0320FFF72DFF0E20FFF72AFFB3
:105640000420FFF727FF3920FFF724FF2520FFF76D
:1056500021FF4D20FFF71EFF0620FFF71BFF0D2047
:10566000FFF718FF0B20FFF715FF3320FFF712FF9E
:105670003720FFF70FFF0F20FFF70CFF2920FFF760
:1056800029FF10BD0010024070478446012300200E
:105690000CE00CEB010212F8012C303A02FB030083
:1056A0000139C9B203EB83035B00DBB20029F0D1FF
:1056B000704700000E4B1B68196A41F2111211422B
:1056C00008D1196A40F24442114203D11A6822F00B
:1056D00001021A60064B1B6800225A621A6842F0E7
:1056E00001021A60024B1B685B6A8342FAD370475F
:1056F00044040020104B1B68196A41F21112114238
:1057000008D1196A40F24442114203D11A6822F0CA
:1057100001021A60084B1B6800225A621A6842F0A4
:1057200001021A60044B1B685B6A00EB8002B3EB5A
:10573000420FF7D3704700BF8C04002008B500F07B
:1057400011F800F0ADF800F0F5FAFFF769FEFFF789
:10575000A5FDFFF789FDFFF795FEFFF7F3FEFFF7C5
:1057600093FF08BD38B5134B134AC3F88422134A7C
:10577000C3F80C25002419E00E494FF4227304FBF2
:1057800003F3CD18D5F884221068C26842F01002E5
:10579000C26080334FF400721944D5F88402FCF7DC
:1057A000A9FF0023C5F880320134E4B2012CE3D90B
:1057B00038BD00BF8C4E00205C020020A0020020FB
:1057C00003681A6812F0100F00D170472DE9F041FC
:1057D00082B00546002401941A6801925B68019327
:1057E000019BFCF7A3FCAB6B1B685A6892B2C2F535
:1057F000007296B20DE04FF4227101FB07F780377B
:105800004FF40072134939442846FCF773FF013402
:10581000E4B2012C1BD827460E4B4FF4227202FB38
:105820000433D3F88432AB42F1D10A4B02FB043388
:10583000D3F88082B8F1000FDDD0134604FB03F3E8
:1058400080333246034919442846C047D3E702B0A3
:10585000BDE8F0818C4E002008B5FFF7B1FF08BD10
:1058600038B51546074C4FF4227303FB004420461D
:1058700000F0E6FA2A462146D4F88402FCF72FFC11
:1058800038BD00BF8C4E002070470000034B4FF422
:10589000227202FB0133C3F8800270478C4E002055
:1058A000014B024A1A6070479C530020A403002059
:1058B00008B5034B53F82000FDF7D2F808BD00BF30
:1058C0009C53002010B586B00023019302930393EC
:1058D0000493059301230293074B19880191022336
:1058E0000493064C2068FBF7CDFD01A92068FBF767
:1058F000D7FC06B010BD00BFA2530020A853002063
:1059000010B586B00023019302930393049305938B
:10591000074B1988019102230493064C2068FBF77A
:10592000B1FD01A92068FBF7BBFC06B010BD00BFAC
:10593000A2530020A8530020F8B5FFF7C3FF0F4D76
:105940000F4C012229882068FBF73DFE0D4F0E4EBB
:10595000012239883068FBF736FE0220FFF7AAFEE5
:10596000002239883068FBF72EFE0220FFF7A2FEE6
:10597000002229882068FBF726FEF8BDA0530020EE
:10598000A4530020A2530020A8530020F8B5FFF72D
:1059900099FF0F4F0F4E002239883068FBF713FE36
:1059A0000D4D0E4C002229882068FBF70CFE0420C8
:1059B000FFF780FE012239883068FBF704FE0220E1
:1059C000FFF778FE012229882068FBF7FCFDF8BD6F
:1059D000A0530020A4530020A2530020A85300206D
:1059E00038B50446FFF76EFF0022164B1988164B98
:1059F0001868FBF7E8FD0220FFF75CFECCB101223E
:105A0000124B1988124B1868FBF7DDFD0220FFF7D7
:105A100051FE0C4D0C4C012229882068FBF7D3FD68
:105A20000420FFF747FE002229882068FBF7CBFD02
:105A300038BD0022054B1988054B1868FBF7C3FDDC
:105A4000E4E700BFA0530020A4530020A25300208D
:105A5000A853002038B5144D144C00222988206822
:105A6000FBF7B1FDFFF74CFF0420FFF723FE0122F7
:105A700029882068FBF7A7FD0420FFF71BFE0C4BCD
:105A800019880C4B1868FBF797FD48B904460022AB
:105A9000054B1988054B1868FBF795FD204638BD66
:105AA000FFF774FFFF24F9E7A0530020A453002060
:105AB000A2530020A8530020F8B50446FFF702FFC8
:105AC00000221B4B19881B4B1868FBF77CFD082331
:105AD0001BE00022184B1988184B1868FBF773FD60
